{
	"groth16/zk/build/zk_verifier.sol": {
		"Groth16Verifier": {
			"abi": [
				{
					"inputs": [
						{
							"internalType": "uint256[2]",
							"name": "_pA",
							"type": "uint256[2]"
						},
						{
							"internalType": "uint256[2][2]",
							"name": "_pB",
							"type": "uint256[2][2]"
						},
						{
							"internalType": "uint256[2]",
							"name": "_pC",
							"type": "uint256[2]"
						},
						{
							"internalType": "uint256[1]",
							"name": "_pubSignals",
							"type": "uint256[1]"
						}
					],
					"name": "verifyProof",
					"outputs": [
						{
							"internalType": "bool",
							"name": "",
							"type": "bool"
						}
					],
					"stateMutability": "view",
					"type": "function"
				}
			],
			"devdoc": {
				"kind": "dev",
				"methods": {},
				"version": 1
			},
			"evm": {
				"assembly": "    /* \"groth16/zk/build/zk_verifier.sol\":831:7136  contract Groth16Verifier {... */\n  mstore(0x40, 0x80)\n  callvalue\n  dup1\n  iszero\n  tag_1\n  jumpi\n  0x00\n  dup1\n  revert\ntag_1:\n  pop\n  dataSize(sub_0)\n  dup1\n  dataOffset(sub_0)\n  0x00\n  codecopy\n  0x00\n  return\nstop\n\nsub_0: assembly {\n        /* \"groth16/zk/build/zk_verifier.sol\":831:7136  contract Groth16Verifier {... */\n      mstore(0x40, 0x80)\n      callvalue\n      dup1\n      iszero\n      tag_1\n      jumpi\n      0x00\n      dup1\n      revert\n    tag_1:\n      pop\n      jumpi(tag_2, lt(calldatasize, 0x04))\n      shr(0xe0, calldataload(0x00))\n      dup1\n      0x43753b4d\n      eq\n      tag_3\n      jumpi\n    tag_2:\n      0x00\n      dup1\n      revert\n        /* \"groth16/zk/build/zk_verifier.sol\":3252:7133  function verifyProof(uint[2] calldata _pA, uint[2][2] calldata _pB, uint[2] calldata _pC, uint[1] calldata _pubSignals) public view returns (bool) {... */\n    tag_3:\n      tag_4\n      0x04\n      dup1\n      calldatasize\n      sub\n      dup2\n      add\n      swap1\n      tag_5\n      swap2\n      swap1\n      tag_6\n      jump\t// in\n    tag_5:\n      tag_7\n      jump\t// in\n    tag_4:\n      mload(0x40)\n      tag_8\n      swap2\n      swap1\n      tag_9\n      jump\t// in\n    tag_8:\n      mload(0x40)\n      dup1\n      swap2\n      sub\n      swap1\n      return\n    tag_7:\n        /* \"groth16/zk/build/zk_verifier.sol\":3393:3397  bool */\n      0x00\n        /* \"groth16/zk/build/zk_verifier.sol\":3432:3595  function checkField(v) {... */\n      jump(tag_14)\n    tag_11:\n        /* \"groth16/zk/build/zk_verifier.sol\":3489:3490  q */\n      0x30644e72e131a029b85045b68181585d97816a916871ca8d3c208c16d87cfd47\n        /* \"groth16/zk/build/zk_verifier.sol\":3486:3487  v */\n      dup2\n        /* \"groth16/zk/build/zk_verifier.sol\":3483:3491  lt(v, q) */\n      lt\n        /* \"groth16/zk/build/zk_verifier.sol\":3473:3581  if iszero(lt(v, q)) {... */\n      tag_16\n      jumpi\n        /* \"groth16/zk/build/zk_verifier.sol\":3525:3526  0 */\n      0x00\n        /* \"groth16/zk/build/zk_verifier.sol\":3522:3523  0 */\n      dup1\n        /* \"groth16/zk/build/zk_verifier.sol\":3515:3527  mstore(0, 0) */\n      mstore\n        /* \"groth16/zk/build/zk_verifier.sol\":3558:3562  0x20 */\n      0x20\n        /* \"groth16/zk/build/zk_verifier.sol\":3555:3556  0 */\n      0x00\n        /* \"groth16/zk/build/zk_verifier.sol\":3548:3563  return(0, 0x20) */\n      return\n        /* \"groth16/zk/build/zk_verifier.sol\":3473:3581  if iszero(lt(v, q)) {... */\n    tag_16:\n        /* \"groth16/zk/build/zk_verifier.sol\":3432:3595  function checkField(v) {... */\n      pop\n      jump\t// out\n        /* \"groth16/zk/build/zk_verifier.sol\":3699:4437  function g1_mulAccC(pR, x, y, s) {... */\n    tag_12:\n        /* \"groth16/zk/build/zk_verifier.sol\":3750:3761  let success */\n      0x00\n        /* \"groth16/zk/build/zk_verifier.sol\":3795:3799  0x40 */\n      0x40\n        /* \"groth16/zk/build/zk_verifier.sol\":3789:3800  mload(0x40) */\n      mload\n        /* \"groth16/zk/build/zk_verifier.sol\":3829:3830  x */\n      dup4\n        /* \"groth16/zk/build/zk_verifier.sol\":3824:3827  mIn */\n      dup2\n        /* \"groth16/zk/build/zk_verifier.sol\":3817:3831  mstore(mIn, x) */\n      mstore\n        /* \"groth16/zk/build/zk_verifier.sol\":3869:3870  y */\n      dup5\n        /* \"groth16/zk/build/zk_verifier.sol\":3864:3866  32 */\n      0x20\n        /* \"groth16/zk/build/zk_verifier.sol\":3859:3862  mIn */\n      dup3\n        /* \"groth16/zk/build/zk_verifier.sol\":3855:3867  add(mIn, 32) */\n      add\n        /* \"groth16/zk/build/zk_verifier.sol\":3848:3871  mstore(add(mIn, 32), y) */\n      mstore\n        /* \"groth16/zk/build/zk_verifier.sol\":3909:3910  s */\n      dup6\n        /* \"groth16/zk/build/zk_verifier.sol\":3904:3906  64 */\n      0x40\n        /* \"groth16/zk/build/zk_verifier.sol\":3899:3902  mIn */\n      dup3\n        /* \"groth16/zk/build/zk_verifier.sol\":3895:3907  add(mIn, 64) */\n      add\n        /* \"groth16/zk/build/zk_verifier.sol\":3888:3911  mstore(add(mIn, 64), s) */\n      mstore\n        /* \"groth16/zk/build/zk_verifier.sol\":3986:3988  64 */\n      0x40\n        /* \"groth16/zk/build/zk_verifier.sol\":3981:3984  mIn */\n      dup2\n        /* \"groth16/zk/build/zk_verifier.sol\":3977:3979  96 */\n      0x60\n        /* \"groth16/zk/build/zk_verifier.sol\":3972:3975  mIn */\n      dup4\n        /* \"groth16/zk/build/zk_verifier.sol\":3969:3970  7 */\n      0x07\n        /* \"groth16/zk/build/zk_verifier.sol\":3962:3966  2000 */\n      0x07d0\n        /* \"groth16/zk/build/zk_verifier.sol\":3955:3960  gas() */\n      gas\n        /* \"groth16/zk/build/zk_verifier.sol\":3951:3967  sub(gas(), 2000) */\n      sub\n        /* \"groth16/zk/build/zk_verifier.sol\":3940:3989  staticcall(sub(gas(), 2000), 7, mIn, 96, mIn, 64) */\n      staticcall\n        /* \"groth16/zk/build/zk_verifier.sol\":3929:3989  success := staticcall(sub(gas(), 2000), 7, mIn, 96, mIn, 64) */\n      swap2\n      pop\n        /* \"groth16/zk/build/zk_verifier.sol\":4017:4024  success */\n      dup2\n        /* \"groth16/zk/build/zk_verifier.sol\":4007:4114  if iszero(success) {... */\n      tag_18\n      jumpi\n        /* \"groth16/zk/build/zk_verifier.sol\":4058:4059  0 */\n      0x00\n        /* \"groth16/zk/build/zk_verifier.sol\":4055:4056  0 */\n      dup1\n        /* \"groth16/zk/build/zk_verifier.sol\":4048:4060  mstore(0, 0) */\n      mstore\n        /* \"groth16/zk/build/zk_verifier.sol\":4091:4095  0x20 */\n      0x20\n        /* \"groth16/zk/build/zk_verifier.sol\":4088:4089  0 */\n      0x00\n        /* \"groth16/zk/build/zk_verifier.sol\":4081:4096  return(0, 0x20) */\n      return\n        /* \"groth16/zk/build/zk_verifier.sol\":4007:4114  if iszero(success) {... */\n    tag_18:\n        /* \"groth16/zk/build/zk_verifier.sol\":4159:4161  pR */\n      dup3\n        /* \"groth16/zk/build/zk_verifier.sol\":4153:4162  mload(pR) */\n      mload\n        /* \"groth16/zk/build/zk_verifier.sol\":4148:4150  64 */\n      0x40\n        /* \"groth16/zk/build/zk_verifier.sol\":4143:4146  mIn */\n      dup3\n        /* \"groth16/zk/build/zk_verifier.sol\":4139:4151  add(mIn, 64) */\n      add\n        /* \"groth16/zk/build/zk_verifier.sol\":4132:4163  mstore(add(mIn, 64), mload(pR)) */\n      mstore\n        /* \"groth16/zk/build/zk_verifier.sol\":4215:4217  32 */\n      0x20\n        /* \"groth16/zk/build/zk_verifier.sol\":4211:4213  pR */\n      dup4\n        /* \"groth16/zk/build/zk_verifier.sol\":4207:4218  add(pR, 32) */\n      add\n        /* \"groth16/zk/build/zk_verifier.sol\":4201:4219  mload(add(pR, 32)) */\n      mload\n        /* \"groth16/zk/build/zk_verifier.sol\":4196:4198  96 */\n      0x60\n        /* \"groth16/zk/build/zk_verifier.sol\":4191:4194  mIn */\n      dup3\n        /* \"groth16/zk/build/zk_verifier.sol\":4187:4199  add(mIn, 96) */\n      add\n        /* \"groth16/zk/build/zk_verifier.sol\":4180:4220  mstore(add(mIn, 96), mload(add(pR, 32))) */\n      mstore\n        /* \"groth16/zk/build/zk_verifier.sol\":4295:4297  64 */\n      0x40\n        /* \"groth16/zk/build/zk_verifier.sol\":4291:4293  pR */\n      dup4\n        /* \"groth16/zk/build/zk_verifier.sol\":4286:4289  128 */\n      0x80\n        /* \"groth16/zk/build/zk_verifier.sol\":4281:4284  mIn */\n      dup4\n        /* \"groth16/zk/build/zk_verifier.sol\":4278:4279  6 */\n      0x06\n        /* \"groth16/zk/build/zk_verifier.sol\":4271:4275  2000 */\n      0x07d0\n        /* \"groth16/zk/build/zk_verifier.sol\":4264:4269  gas() */\n      gas\n        /* \"groth16/zk/build/zk_verifier.sol\":4260:4276  sub(gas(), 2000) */\n      sub\n        /* \"groth16/zk/build/zk_verifier.sol\":4249:4298  staticcall(sub(gas(), 2000), 6, mIn, 128, pR, 64) */\n      staticcall\n        /* \"groth16/zk/build/zk_verifier.sol\":4238:4298  success := staticcall(sub(gas(), 2000), 6, mIn, 128, pR, 64) */\n      swap2\n      pop\n        /* \"groth16/zk/build/zk_verifier.sol\":4326:4333  success */\n      dup2\n        /* \"groth16/zk/build/zk_verifier.sol\":4316:4423  if iszero(success) {... */\n      tag_19\n      jumpi\n        /* \"groth16/zk/build/zk_verifier.sol\":4367:4368  0 */\n      0x00\n        /* \"groth16/zk/build/zk_verifier.sol\":4364:4365  0 */\n      dup1\n        /* \"groth16/zk/build/zk_verifier.sol\":4357:4369  mstore(0, 0) */\n      mstore\n        /* \"groth16/zk/build/zk_verifier.sol\":4400:4404  0x20 */\n      0x20\n        /* \"groth16/zk/build/zk_verifier.sol\":4397:4398  0 */\n      0x00\n        /* \"groth16/zk/build/zk_verifier.sol\":4390:4405  return(0, 0x20) */\n      return\n        /* \"groth16/zk/build/zk_verifier.sol\":4316:4423  if iszero(success) {... */\n    tag_19:\n        /* \"groth16/zk/build/zk_verifier.sol\":3732:4437  {... */\n      pop\n      pop\n        /* \"groth16/zk/build/zk_verifier.sol\":3699:4437  function g1_mulAccC(pR, x, y, s) {... */\n      pop\n      pop\n      pop\n      pop\n      jump\t// out\n        /* \"groth16/zk/build/zk_verifier.sol\":4451:6648  function checkPairing(pA, pB, pC, pubSignals, pMem) -> isOk {... */\n    tag_13:\n        /* \"groth16/zk/build/zk_verifier.sol\":4506:4510  isOk */\n      0x00\n        /* \"groth16/zk/build/zk_verifier.sol\":4556:4564  pPairing */\n      0x80\n        /* \"groth16/zk/build/zk_verifier.sol\":4550:4554  pMem */\n      dup7\n        /* \"groth16/zk/build/zk_verifier.sol\":4546:4565  add(pMem, pPairing) */\n      add\n        /* \"groth16/zk/build/zk_verifier.sol\":4604:4607  pVk */\n      0x00\n        /* \"groth16/zk/build/zk_verifier.sol\":4598:4602  pMem */\n      dup8\n        /* \"groth16/zk/build/zk_verifier.sol\":4594:4608  add(pMem, pVk) */\n      add\n        /* \"groth16/zk/build/zk_verifier.sol\":4639:4643  IC0x */\n      0x0f13deecd2bb97a4a72138125f42fb6cf7a7d268c07b6be71ea235c128ec8b0d\n        /* \"groth16/zk/build/zk_verifier.sol\":4633:4637  _pVk */\n      dup2\n        /* \"groth16/zk/build/zk_verifier.sol\":4626:4644  mstore(_pVk, IC0x) */\n      mstore\n        /* \"groth16/zk/build/zk_verifier.sol\":4683:4687  IC0y */\n      0x141a084ea96151edd848da5554d22ffe50108204685faf2953c88cc5ecd13afc\n        /* \"groth16/zk/build/zk_verifier.sol\":4678:4680  32 */\n      0x20\n        /* \"groth16/zk/build/zk_verifier.sol\":4672:4676  _pVk */\n      dup3\n        /* \"groth16/zk/build/zk_verifier.sol\":4668:4681  add(_pVk, 32) */\n      add\n        /* \"groth16/zk/build/zk_verifier.sol\":4661:4688  mstore(add(_pVk, 32), IC0y) */\n      mstore\n        /* \"groth16/zk/build/zk_verifier.sol\":4778:4840  g1_mulAccC(_pVk, IC1x, IC1y, calldataload(add(pubSignals, 0))) */\n      tag_21\n        /* \"groth16/zk/build/zk_verifier.sol\":4836:4837  0 */\n      0x00\n        /* \"groth16/zk/build/zk_verifier.sol\":4824:4834  pubSignals */\n      dup9\n        /* \"groth16/zk/build/zk_verifier.sol\":4820:4838  add(pubSignals, 0) */\n      add\n        /* \"groth16/zk/build/zk_verifier.sol\":4807:4839  calldataload(add(pubSignals, 0)) */\n      calldataload\n        /* \"groth16/zk/build/zk_verifier.sol\":4801:4805  IC1y */\n      0x29cd386360b0c1e935715c99a3e1f741ec0eab67ecb7ca643bfc87163cab5315\n        /* \"groth16/zk/build/zk_verifier.sol\":4795:4799  IC1x */\n      0x27890d5f3cdd70f4205d0f7173927374bff334e68cc531b57f158ef8019bdffb\n        /* \"groth16/zk/build/zk_verifier.sol\":4789:4793  _pVk */\n      dup5\n        /* \"groth16/zk/build/zk_verifier.sol\":4778:4840  g1_mulAccC(_pVk, IC1x, IC1y, calldataload(add(pubSignals, 0))) */\n      tag_12\n      jump\t// in\n    tag_21:\n        /* \"groth16/zk/build/zk_verifier.sol\":4928:4930  pA */\n      dup4\n        /* \"groth16/zk/build/zk_verifier.sol\":4915:4931  calldataload(pA) */\n      calldataload\n        /* \"groth16/zk/build/zk_verifier.sol\":4904:4913  _pPairing */\n      dup3\n        /* \"groth16/zk/build/zk_verifier.sol\":4897:4932  mstore(_pPairing, calldataload(pA)) */\n      mstore\n        /* \"groth16/zk/build/zk_verifier.sol\":5015:5016  q */\n      0x30644e72e131a029b85045b68181585d97816a916871ca8d3c208c16d87cfd47\n        /* \"groth16/zk/build/zk_verifier.sol\":5008:5010  32 */\n      0x20\n        /* \"groth16/zk/build/zk_verifier.sol\":5004:5006  pA */\n      dup6\n        /* \"groth16/zk/build/zk_verifier.sol\":5000:5011  add(pA, 32) */\n      add\n        /* \"groth16/zk/build/zk_verifier.sol\":4987:5012  calldataload(add(pA, 32)) */\n      calldataload\n        /* \"groth16/zk/build/zk_verifier.sol\":4984:4985  q */\n      0x30644e72e131a029b85045b68181585d97816a916871ca8d3c208c16d87cfd47\n        /* \"groth16/zk/build/zk_verifier.sol\":4980:5013  sub(q, calldataload(add(pA, 32))) */\n      sub\n        /* \"groth16/zk/build/zk_verifier.sol\":4976:5017  mod(sub(q, calldataload(add(pA, 32))), q) */\n      mod\n        /* \"groth16/zk/build/zk_verifier.sol\":4971:4973  32 */\n      0x20\n        /* \"groth16/zk/build/zk_verifier.sol\":4960:4969  _pPairing */\n      dup4\n        /* \"groth16/zk/build/zk_verifier.sol\":4956:4974  add(_pPairing, 32) */\n      add\n        /* \"groth16/zk/build/zk_verifier.sol\":4949:5018  mstore(add(_pPairing, 32), mod(sub(q, calldataload(add(pA, 32))), q)) */\n      mstore\n        /* \"groth16/zk/build/zk_verifier.sol\":5097:5099  pB */\n      dup5\n        /* \"groth16/zk/build/zk_verifier.sol\":5084:5100  calldataload(pB) */\n      calldataload\n        /* \"groth16/zk/build/zk_verifier.sol\":5079:5081  64 */\n      0x40\n        /* \"groth16/zk/build/zk_verifier.sol\":5068:5077  _pPairing */\n      dup4\n        /* \"groth16/zk/build/zk_verifier.sol\":5064:5082  add(_pPairing, 64) */\n      add\n        /* \"groth16/zk/build/zk_verifier.sol\":5057:5101  mstore(add(_pPairing, 64), calldataload(pB)) */\n      mstore\n        /* \"groth16/zk/build/zk_verifier.sol\":5166:5168  32 */\n      0x20\n        /* \"groth16/zk/build/zk_verifier.sol\":5162:5164  pB */\n      dup6\n        /* \"groth16/zk/build/zk_verifier.sol\":5158:5169  add(pB, 32) */\n      add\n        /* \"groth16/zk/build/zk_verifier.sol\":5145:5170  calldataload(add(pB, 32)) */\n      calldataload\n        /* \"groth16/zk/build/zk_verifier.sol\":5140:5142  96 */\n      0x60\n        /* \"groth16/zk/build/zk_verifier.sol\":5129:5138  _pPairing */\n      dup4\n        /* \"groth16/zk/build/zk_verifier.sol\":5125:5143  add(_pPairing, 96) */\n      add\n        /* \"groth16/zk/build/zk_verifier.sol\":5118:5171  mstore(add(_pPairing, 96), calldataload(add(pB, 32))) */\n      mstore\n        /* \"groth16/zk/build/zk_verifier.sol\":5237:5239  64 */\n      0x40\n        /* \"groth16/zk/build/zk_verifier.sol\":5233:5235  pB */\n      dup6\n        /* \"groth16/zk/build/zk_verifier.sol\":5229:5240  add(pB, 64) */\n      add\n        /* \"groth16/zk/build/zk_verifier.sol\":5216:5241  calldataload(add(pB, 64)) */\n      calldataload\n        /* \"groth16/zk/build/zk_verifier.sol\":5210:5213  128 */\n      0x80\n        /* \"groth16/zk/build/zk_verifier.sol\":5199:5208  _pPairing */\n      dup4\n        /* \"groth16/zk/build/zk_verifier.sol\":5195:5214  add(_pPairing, 128) */\n      add\n        /* \"groth16/zk/build/zk_verifier.sol\":5188:5242  mstore(add(_pPairing, 128), calldataload(add(pB, 64))) */\n      mstore\n        /* \"groth16/zk/build/zk_verifier.sol\":5308:5310  96 */\n      0x60\n        /* \"groth16/zk/build/zk_verifier.sol\":5304:5306  pB */\n      dup6\n        /* \"groth16/zk/build/zk_verifier.sol\":5300:5311  add(pB, 96) */\n      add\n        /* \"groth16/zk/build/zk_verifier.sol\":5287:5312  calldataload(add(pB, 96)) */\n      calldataload\n        /* \"groth16/zk/build/zk_verifier.sol\":5281:5284  160 */\n      0xa0\n        /* \"groth16/zk/build/zk_verifier.sol\":5270:5279  _pPairing */\n      dup4\n        /* \"groth16/zk/build/zk_verifier.sol\":5266:5285  add(_pPairing, 160) */\n      add\n        /* \"groth16/zk/build/zk_verifier.sol\":5259:5313  mstore(add(_pPairing, 160), calldataload(add(pB, 96))) */\n      mstore\n        /* \"groth16/zk/build/zk_verifier.sol\":5385:5391  alphax */\n      0x2d4d9aa7e302d9df41749d5507949d05dbea33fbb16c643b22f599a2be6df2e2\n        /* \"groth16/zk/build/zk_verifier.sol\":5379:5382  192 */\n      0xc0\n        /* \"groth16/zk/build/zk_verifier.sol\":5368:5377  _pPairing */\n      dup4\n        /* \"groth16/zk/build/zk_verifier.sol\":5364:5383  add(_pPairing, 192) */\n      add\n        /* \"groth16/zk/build/zk_verifier.sol\":5357:5392  mstore(add(_pPairing, 192), alphax) */\n      mstore\n        /* \"groth16/zk/build/zk_verifier.sol\":5437:5443  alphay */\n      0x14bedd503c37ceb061d8ec60209fe345ce89830a19230301f076caff004d1926\n        /* \"groth16/zk/build/zk_verifier.sol\":5431:5434  224 */\n      0xe0\n        /* \"groth16/zk/build/zk_verifier.sol\":5420:5429  _pPairing */\n      dup4\n        /* \"groth16/zk/build/zk_verifier.sol\":5416:5435  add(_pPairing, 224) */\n      add\n        /* \"groth16/zk/build/zk_verifier.sol\":5409:5444  mstore(add(_pPairing, 224), alphay) */\n      mstore\n        /* \"groth16/zk/build/zk_verifier.sol\":5515:5521  betax1 */\n      0x0967032fcbf776d1afc985f88877f182d38480a653f2decaa9794cbc3bf3060c\n        /* \"groth16/zk/build/zk_verifier.sol\":5509:5512  256 */\n      0x0100\n        /* \"groth16/zk/build/zk_verifier.sol\":5498:5507  _pPairing */\n      dup4\n        /* \"groth16/zk/build/zk_verifier.sol\":5494:5513  add(_pPairing, 256) */\n      add\n        /* \"groth16/zk/build/zk_verifier.sol\":5487:5522  mstore(add(_pPairing, 256), betax1) */\n      mstore\n        /* \"groth16/zk/build/zk_verifier.sol\":5567:5573  betax2 */\n      0x0e187847ad4c798374d0d6732bf501847dd68bc0e071241e0213bc7fc13db7ab\n        /* \"groth16/zk/build/zk_verifier.sol\":5561:5564  288 */\n      0x0120\n        /* \"groth16/zk/build/zk_verifier.sol\":5550:5559  _pPairing */\n      dup4\n        /* \"groth16/zk/build/zk_verifier.sol\":5546:5565  add(_pPairing, 288) */\n      add\n        /* \"groth16/zk/build/zk_verifier.sol\":5539:5574  mstore(add(_pPairing, 288), betax2) */\n      mstore\n        /* \"groth16/zk/build/zk_verifier.sol\":5619:5625  betay1 */\n      0x304cfbd1e08a704a99f5e847d93f8c3caafddec46b7a0d379da69a4d112346a7\n        /* \"groth16/zk/build/zk_verifier.sol\":5613:5616  320 */\n      0x0140\n        /* \"groth16/zk/build/zk_verifier.sol\":5602:5611  _pPairing */\n      dup4\n        /* \"groth16/zk/build/zk_verifier.sol\":5598:5617  add(_pPairing, 320) */\n      add\n        /* \"groth16/zk/build/zk_verifier.sol\":5591:5626  mstore(add(_pPairing, 320), betay1) */\n      mstore\n        /* \"groth16/zk/build/zk_verifier.sol\":5671:5677  betay2 */\n      0x1739c1b1a457a8c7313123d24d2f9192f896b7c63eea05a9d57f06547ad0cec8\n        /* \"groth16/zk/build/zk_verifier.sol\":5665:5668  352 */\n      0x0160\n        /* \"groth16/zk/build/zk_verifier.sol\":5654:5663  _pPairing */\n      dup4\n        /* \"groth16/zk/build/zk_verifier.sol\":5650:5669  add(_pPairing, 352) */\n      add\n        /* \"groth16/zk/build/zk_verifier.sol\":5643:5678  mstore(add(_pPairing, 352), betay2) */\n      mstore\n        /* \"groth16/zk/build/zk_verifier.sol\":5764:5767  pVk */\n      0x00\n        /* \"groth16/zk/build/zk_verifier.sol\":5758:5762  pMem */\n      dup9\n        /* \"groth16/zk/build/zk_verifier.sol\":5754:5768  add(pMem, pVk) */\n      add\n        /* \"groth16/zk/build/zk_verifier.sol\":5748:5769  mload(add(pMem, pVk)) */\n      mload\n        /* \"groth16/zk/build/zk_verifier.sol\":5742:5745  384 */\n      0x0180\n        /* \"groth16/zk/build/zk_verifier.sol\":5731:5740  _pPairing */\n      dup4\n        /* \"groth16/zk/build/zk_verifier.sol\":5727:5746  add(_pPairing, 384) */\n      add\n        /* \"groth16/zk/build/zk_verifier.sol\":5720:5770  mstore(add(_pPairing, 384), mload(add(pMem, pVk))) */\n      mstore\n        /* \"groth16/zk/build/zk_verifier.sol\":5840:5842  32 */\n      0x20\n        /* \"groth16/zk/build/zk_verifier.sol\":5835:5838  pVk */\n      0x00\n        /* \"groth16/zk/build/zk_verifier.sol\":5831:5843  add(pVk, 32) */\n      add\n        /* \"groth16/zk/build/zk_verifier.sol\":5825:5829  pMem */\n      dup9\n        /* \"groth16/zk/build/zk_verifier.sol\":5821:5844  add(pMem, add(pVk, 32)) */\n      add\n        /* \"groth16/zk/build/zk_verifier.sol\":5815:5845  mload(add(pMem, add(pVk, 32))) */\n      mload\n        /* \"groth16/zk/build/zk_verifier.sol\":5809:5812  416 */\n      0x01a0\n        /* \"groth16/zk/build/zk_verifier.sol\":5798:5807  _pPairing */\n      dup4\n        /* \"groth16/zk/build/zk_verifier.sol\":5794:5813  add(_pPairing, 416) */\n      add\n        /* \"groth16/zk/build/zk_verifier.sol\":5787:5846  mstore(add(_pPairing, 416), mload(add(pMem, add(pVk, 32)))) */\n      mstore\n        /* \"groth16/zk/build/zk_verifier.sol\":5919:5926  gammax1 */\n      0x198e9393920d483a7260bfb731fb5d25f1aa493335a9e71297e485b7aef312c2\n        /* \"groth16/zk/build/zk_verifier.sol\":5913:5916  448 */\n      0x01c0\n        /* \"groth16/zk/build/zk_verifier.sol\":5902:5911  _pPairing */\n      dup4\n        /* \"groth16/zk/build/zk_verifier.sol\":5898:5917  add(_pPairing, 448) */\n      add\n        /* \"groth16/zk/build/zk_verifier.sol\":5891:5927  mstore(add(_pPairing, 448), gammax1) */\n      mstore\n        /* \"groth16/zk/build/zk_verifier.sol\":5972:5979  gammax2 */\n      0x1800deef121f1e76426a00665e5c4479674322d4f75edadd46debd5cd992f6ed\n        /* \"groth16/zk/build/zk_verifier.sol\":5966:5969  480 */\n      0x01e0\n        /* \"groth16/zk/build/zk_verifier.sol\":5955:5964  _pPairing */\n      dup4\n        /* \"groth16/zk/build/zk_verifier.sol\":5951:5970  add(_pPairing, 480) */\n      add\n        /* \"groth16/zk/build/zk_verifier.sol\":5944:5980  mstore(add(_pPairing, 480), gammax2) */\n      mstore\n        /* \"groth16/zk/build/zk_verifier.sol\":6025:6032  gammay1 */\n      0x090689d0585ff075ec9e99ad690c3395bc4b313370b38ef355acdadcd122975b\n        /* \"groth16/zk/build/zk_verifier.sol\":6019:6022  512 */\n      0x0200\n        /* \"groth16/zk/build/zk_verifier.sol\":6008:6017  _pPairing */\n      dup4\n        /* \"groth16/zk/build/zk_verifier.sol\":6004:6023  add(_pPairing, 512) */\n      add\n        /* \"groth16/zk/build/zk_verifier.sol\":5997:6033  mstore(add(_pPairing, 512), gammay1) */\n      mstore\n        /* \"groth16/zk/build/zk_verifier.sol\":6078:6085  gammay2 */\n      0x12c85ea5db8c6deb4aab71808dcb408fe3d1e7690c43d37b4ce6cc0166fa7daa\n        /* \"groth16/zk/build/zk_verifier.sol\":6072:6075  544 */\n      0x0220\n        /* \"groth16/zk/build/zk_verifier.sol\":6061:6070  _pPairing */\n      dup4\n        /* \"groth16/zk/build/zk_verifier.sol\":6057:6076  add(_pPairing, 544) */\n      add\n        /* \"groth16/zk/build/zk_verifier.sol\":6050:6086  mstore(add(_pPairing, 544), gammay2) */\n      mstore\n        /* \"groth16/zk/build/zk_verifier.sol\":6166:6168  pC */\n      dup6\n        /* \"groth16/zk/build/zk_verifier.sol\":6153:6169  calldataload(pC) */\n      calldataload\n        /* \"groth16/zk/build/zk_verifier.sol\":6147:6150  576 */\n      0x0240\n        /* \"groth16/zk/build/zk_verifier.sol\":6136:6145  _pPairing */\n      dup4\n        /* \"groth16/zk/build/zk_verifier.sol\":6132:6151  add(_pPairing, 576) */\n      add\n        /* \"groth16/zk/build/zk_verifier.sol\":6125:6170  mstore(add(_pPairing, 576), calldataload(pC)) */\n      mstore\n        /* \"groth16/zk/build/zk_verifier.sol\":6236:6238  32 */\n      0x20\n        /* \"groth16/zk/build/zk_verifier.sol\":6232:6234  pC */\n      dup7\n        /* \"groth16/zk/build/zk_verifier.sol\":6228:6239  add(pC, 32) */\n      add\n        /* \"groth16/zk/build/zk_verifier.sol\":6215:6240  calldataload(add(pC, 32)) */\n      calldataload\n        /* \"groth16/zk/build/zk_verifier.sol\":6209:6212  608 */\n      0x0260\n        /* \"groth16/zk/build/zk_verifier.sol\":6198:6207  _pPairing */\n      dup4\n        /* \"groth16/zk/build/zk_verifier.sol\":6194:6213  add(_pPairing, 608) */\n      add\n        /* \"groth16/zk/build/zk_verifier.sol\":6187:6241  mstore(add(_pPairing, 608), calldataload(add(pC, 32))) */\n      mstore\n        /* \"groth16/zk/build/zk_verifier.sol\":6313:6320  deltax1 */\n      0x198e9393920d483a7260bfb731fb5d25f1aa493335a9e71297e485b7aef312c2\n        /* \"groth16/zk/build/zk_verifier.sol\":6307:6310  640 */\n      0x0280\n        /* \"groth16/zk/build/zk_verifier.sol\":6296:6305  _pPairing */\n      dup4\n        /* \"groth16/zk/build/zk_verifier.sol\":6292:6311  add(_pPairing, 640) */\n      add\n        /* \"groth16/zk/build/zk_verifier.sol\":6285:6321  mstore(add(_pPairing, 640), deltax1) */\n      mstore\n        /* \"groth16/zk/build/zk_verifier.sol\":6366:6373  deltax2 */\n      0x1800deef121f1e76426a00665e5c4479674322d4f75edadd46debd5cd992f6ed\n        /* \"groth16/zk/build/zk_verifier.sol\":6360:6363  672 */\n      0x02a0\n        /* \"groth16/zk/build/zk_verifier.sol\":6349:6358  _pPairing */\n      dup4\n        /* \"groth16/zk/build/zk_verifier.sol\":6345:6364  add(_pPairing, 672) */\n      add\n        /* \"groth16/zk/build/zk_verifier.sol\":6338:6374  mstore(add(_pPairing, 672), deltax2) */\n      mstore\n        /* \"groth16/zk/build/zk_verifier.sol\":6419:6426  deltay1 */\n      0x090689d0585ff075ec9e99ad690c3395bc4b313370b38ef355acdadcd122975b\n        /* \"groth16/zk/build/zk_verifier.sol\":6413:6416  704 */\n      0x02c0\n        /* \"groth16/zk/build/zk_verifier.sol\":6402:6411  _pPairing */\n      dup4\n        /* \"groth16/zk/build/zk_verifier.sol\":6398:6417  add(_pPairing, 704) */\n      add\n        /* \"groth16/zk/build/zk_verifier.sol\":6391:6427  mstore(add(_pPairing, 704), deltay1) */\n      mstore\n        /* \"groth16/zk/build/zk_verifier.sol\":6472:6479  deltay2 */\n      0x12c85ea5db8c6deb4aab71808dcb408fe3d1e7690c43d37b4ce6cc0166fa7daa\n        /* \"groth16/zk/build/zk_verifier.sol\":6466:6469  736 */\n      0x02e0\n        /* \"groth16/zk/build/zk_verifier.sol\":6455:6464  _pPairing */\n      dup4\n        /* \"groth16/zk/build/zk_verifier.sol\":6451:6470  add(_pPairing, 736) */\n      add\n        /* \"groth16/zk/build/zk_verifier.sol\":6444:6480  mstore(add(_pPairing, 736), deltay2) */\n      mstore\n        /* \"groth16/zk/build/zk_verifier.sol\":6573:6577  0x20 */\n      0x20\n        /* \"groth16/zk/build/zk_verifier.sol\":6562:6571  _pPairing */\n      dup3\n        /* \"groth16/zk/build/zk_verifier.sol\":6557:6560  768 */\n      0x0300\n        /* \"groth16/zk/build/zk_verifier.sol\":6546:6555  _pPairing */\n      dup5\n        /* \"groth16/zk/build/zk_verifier.sol\":6543:6544  8 */\n      0x08\n        /* \"groth16/zk/build/zk_verifier.sol\":6536:6540  2000 */\n      0x07d0\n        /* \"groth16/zk/build/zk_verifier.sol\":6529:6534  gas() */\n      gas\n        /* \"groth16/zk/build/zk_verifier.sol\":6525:6541  sub(gas(), 2000) */\n      sub\n        /* \"groth16/zk/build/zk_verifier.sol\":6514:6578  staticcall(sub(gas(), 2000), 8, _pPairing, 768, _pPairing, 0x20) */\n      staticcall\n        /* \"groth16/zk/build/zk_verifier.sol\":6623:6632  _pPairing */\n      dup3\n        /* \"groth16/zk/build/zk_verifier.sol\":6617:6633  mload(_pPairing) */\n      mload\n        /* \"groth16/zk/build/zk_verifier.sol\":6608:6615  success */\n      dup2\n        /* \"groth16/zk/build/zk_verifier.sol\":6604:6634  and(success, mload(_pPairing)) */\n      and\n        /* \"groth16/zk/build/zk_verifier.sol\":6596:6634  isOk := and(success, mload(_pPairing)) */\n      swap4\n      pop\n        /* \"groth16/zk/build/zk_verifier.sol\":4511:6648  {... */\n      pop\n      pop\n      pop\n        /* \"groth16/zk/build/zk_verifier.sol\":4451:6648  function checkPairing(pA, pB, pC, pubSignals, pMem) -> isOk {... */\n      swap6\n      swap5\n      pop\n      pop\n      pop\n      pop\n      pop\n      jump\t// out\n    tag_14:\n        /* \"groth16/zk/build/zk_verifier.sol\":6680:6684  0x40 */\n      0x40\n        /* \"groth16/zk/build/zk_verifier.sol\":6674:6685  mload(0x40) */\n      mload\n        /* \"groth16/zk/build/zk_verifier.sol\":6721:6729  pLastMem */\n      0x0380\n        /* \"groth16/zk/build/zk_verifier.sol\":6715:6719  pMem */\n      dup2\n        /* \"groth16/zk/build/zk_verifier.sol\":6711:6730  add(pMem, pLastMem) */\n      add\n        /* \"groth16/zk/build/zk_verifier.sol\":6705:6709  0x40 */\n      0x40\n        /* \"groth16/zk/build/zk_verifier.sol\":6698:6731  mstore(0x40, add(pMem, pLastMem)) */\n      mstore\n        /* \"groth16/zk/build/zk_verifier.sol\":6809:6854  checkField(calldataload(add(_pubSignals, 0))) */\n      tag_22\n        /* \"groth16/zk/build/zk_verifier.sol\":6850:6851  0 */\n      0x00\n        /* \"groth16/zk/build/zk_verifier.sol\":6837:6848  _pubSignals */\n      dup5\n        /* \"groth16/zk/build/zk_verifier.sol\":6833:6852  add(_pubSignals, 0) */\n      add\n        /* \"groth16/zk/build/zk_verifier.sol\":6820:6853  calldataload(add(_pubSignals, 0)) */\n      calldataload\n        /* \"groth16/zk/build/zk_verifier.sol\":6809:6854  checkField(calldataload(add(_pubSignals, 0))) */\n      tag_11\n      jump\t// in\n    tag_22:\n        /* \"groth16/zk/build/zk_verifier.sol\":6880:6926  checkField(calldataload(add(_pubSignals, 32))) */\n      tag_23\n        /* \"groth16/zk/build/zk_verifier.sol\":6921:6923  32 */\n      0x20\n        /* \"groth16/zk/build/zk_verifier.sol\":6908:6919  _pubSignals */\n      dup5\n        /* \"groth16/zk/build/zk_verifier.sol\":6904:6924  add(_pubSignals, 32) */\n      add\n        /* \"groth16/zk/build/zk_verifier.sol\":6891:6925  calldataload(add(_pubSignals, 32)) */\n      calldataload\n        /* \"groth16/zk/build/zk_verifier.sol\":6880:6926  checkField(calldataload(add(_pubSignals, 32))) */\n      tag_11\n      jump\t// in\n    tag_23:\n        /* \"groth16/zk/build/zk_verifier.sol\":7008:7054  checkPairing(_pA, _pB, _pC, _pubSignals, pMem) */\n      tag_24\n        /* \"groth16/zk/build/zk_verifier.sol\":7049:7053  pMem */\n      dup2\n        /* \"groth16/zk/build/zk_verifier.sol\":7036:7047  _pubSignals */\n      dup5\n        /* \"groth16/zk/build/zk_verifier.sol\":7031:7034  _pC */\n      dup7\n        /* \"groth16/zk/build/zk_verifier.sol\":7026:7029  _pB */\n      dup9\n        /* \"groth16/zk/build/zk_verifier.sol\":7021:7024  _pA */\n      dup11\n        /* \"groth16/zk/build/zk_verifier.sol\":7008:7054  checkPairing(_pA, _pB, _pC, _pubSignals, pMem) */\n      tag_13\n      jump\t// in\n    tag_24:\n        /* \"groth16/zk/build/zk_verifier.sol\":7078:7085  isValid */\n      dup1\n        /* \"groth16/zk/build/zk_verifier.sol\":7075:7076  0 */\n      0x00\n        /* \"groth16/zk/build/zk_verifier.sol\":7068:7086  mstore(0, isValid) */\n      mstore\n        /* \"groth16/zk/build/zk_verifier.sol\":7110:7114  0x20 */\n      0x20\n        /* \"groth16/zk/build/zk_verifier.sol\":7107:7108  0 */\n      0x00\n        /* \"groth16/zk/build/zk_verifier.sol\":7100:7115  return(0, 0x20) */\n      return\n        /* \"#utility.yul\":88:205   */\n    tag_26:\n        /* \"#utility.yul\":197:198   */\n      0x00\n        /* \"#utility.yul\":194:195   */\n      dup1\n        /* \"#utility.yul\":187:199   */\n      revert\n        /* \"#utility.yul\":334:451   */\n    tag_28:\n        /* \"#utility.yul\":443:444   */\n      0x00\n        /* \"#utility.yul\":440:441   */\n      dup1\n        /* \"#utility.yul\":433:445   */\n      revert\n        /* \"#utility.yul\":475:724   */\n    tag_29:\n        /* \"#utility.yul\":546:554   */\n      0x00\n        /* \"#utility.yul\":577:583   */\n      dup2\n        /* \"#utility.yul\":565:583   */\n      swap1\n      pop\n        /* \"#utility.yul\":630:633   */\n      dup3\n        /* \"#utility.yul\":622:626   */\n      0x20\n        /* \"#utility.yul\":616:620   */\n      0x02\n        /* \"#utility.yul\":612:627   */\n      mul\n        /* \"#utility.yul\":602:610   */\n      dup3\n        /* \"#utility.yul\":598:628   */\n      add\n        /* \"#utility.yul\":595:634   */\n      gt\n        /* \"#utility.yul\":592:718   */\n      iszero\n      tag_40\n      jumpi\n        /* \"#utility.yul\":637:716   */\n      tag_41\n      tag_28\n      jump\t// in\n    tag_41:\n        /* \"#utility.yul\":592:718   */\n    tag_40:\n        /* \"#utility.yul\":475:724   */\n      swap3\n      swap2\n      pop\n      pop\n      jump\t// out\n        /* \"#utility.yul\":751:1025   */\n    tag_30:\n        /* \"#utility.yul\":847:855   */\n      0x00\n        /* \"#utility.yul\":878:884   */\n      dup2\n        /* \"#utility.yul\":866:884   */\n      swap1\n      pop\n        /* \"#utility.yul\":931:934   */\n      dup3\n        /* \"#utility.yul\":923:927   */\n      0x40\n        /* \"#utility.yul\":917:921   */\n      0x02\n        /* \"#utility.yul\":913:928   */\n      mul\n        /* \"#utility.yul\":903:911   */\n      dup3\n        /* \"#utility.yul\":899:929   */\n      add\n        /* \"#utility.yul\":896:935   */\n      gt\n        /* \"#utility.yul\":893:1019   */\n      iszero\n      tag_43\n      jumpi\n        /* \"#utility.yul\":938:1017   */\n      tag_44\n      tag_28\n      jump\t// in\n    tag_44:\n        /* \"#utility.yul\":893:1019   */\n    tag_43:\n        /* \"#utility.yul\":751:1025   */\n      swap3\n      swap2\n      pop\n      pop\n      jump\t// out\n        /* \"#utility.yul\":1049:1298   */\n    tag_31:\n        /* \"#utility.yul\":1120:1128   */\n      0x00\n        /* \"#utility.yul\":1151:1157   */\n      dup2\n        /* \"#utility.yul\":1139:1157   */\n      swap1\n      pop\n        /* \"#utility.yul\":1204:1207   */\n      dup3\n        /* \"#utility.yul\":1196:1200   */\n      0x20\n        /* \"#utility.yul\":1190:1194   */\n      0x01\n        /* \"#utility.yul\":1186:1201   */\n      mul\n        /* \"#utility.yul\":1176:1184   */\n      dup3\n        /* \"#utility.yul\":1172:1202   */\n      add\n        /* \"#utility.yul\":1169:1208   */\n      gt\n        /* \"#utility.yul\":1166:1292   */\n      iszero\n      tag_46\n      jumpi\n        /* \"#utility.yul\":1211:1290   */\n      tag_47\n      tag_28\n      jump\t// in\n    tag_47:\n        /* \"#utility.yul\":1166:1292   */\n    tag_46:\n        /* \"#utility.yul\":1049:1298   */\n      swap3\n      swap2\n      pop\n      pop\n      jump\t// out\n        /* \"#utility.yul\":1304:2321   */\n    tag_6:\n        /* \"#utility.yul\":1515:1521   */\n      0x00\n        /* \"#utility.yul\":1523:1529   */\n      dup1\n        /* \"#utility.yul\":1531:1537   */\n      0x00\n        /* \"#utility.yul\":1539:1545   */\n      dup1\n        /* \"#utility.yul\":1588:1591   */\n      0x0120\n        /* \"#utility.yul\":1576:1585   */\n      dup6\n        /* \"#utility.yul\":1567:1574   */\n      dup8\n        /* \"#utility.yul\":1563:1586   */\n      sub\n        /* \"#utility.yul\":1559:1592   */\n      slt\n        /* \"#utility.yul\":1556:1676   */\n      iszero\n      tag_49\n      jumpi\n        /* \"#utility.yul\":1595:1674   */\n      tag_50\n      tag_26\n      jump\t// in\n    tag_50:\n        /* \"#utility.yul\":1556:1676   */\n    tag_49:\n        /* \"#utility.yul\":1715:1716   */\n      0x00\n        /* \"#utility.yul\":1740:1818   */\n      tag_51\n        /* \"#utility.yul\":1810:1817   */\n      dup8\n        /* \"#utility.yul\":1801:1807   */\n      dup3\n        /* \"#utility.yul\":1790:1799   */\n      dup9\n        /* \"#utility.yul\":1786:1808   */\n      add\n        /* \"#utility.yul\":1740:1818   */\n      tag_29\n      jump\t// in\n    tag_51:\n        /* \"#utility.yul\":1730:1818   */\n      swap5\n      pop\n        /* \"#utility.yul\":1686:1828   */\n      pop\n        /* \"#utility.yul\":1867:1869   */\n      0x40\n        /* \"#utility.yul\":1893:1996   */\n      tag_52\n        /* \"#utility.yul\":1988:1995   */\n      dup8\n        /* \"#utility.yul\":1979:1985   */\n      dup3\n        /* \"#utility.yul\":1968:1977   */\n      dup9\n        /* \"#utility.yul\":1964:1986   */\n      add\n        /* \"#utility.yul\":1893:1996   */\n      tag_30\n      jump\t// in\n    tag_52:\n        /* \"#utility.yul\":1883:1996   */\n      swap4\n      pop\n        /* \"#utility.yul\":1838:2006   */\n      pop\n        /* \"#utility.yul\":2045:2048   */\n      0xc0\n        /* \"#utility.yul\":2072:2150   */\n      tag_53\n        /* \"#utility.yul\":2142:2149   */\n      dup8\n        /* \"#utility.yul\":2133:2139   */\n      dup3\n        /* \"#utility.yul\":2122:2131   */\n      dup9\n        /* \"#utility.yul\":2118:2140   */\n      add\n        /* \"#utility.yul\":2072:2150   */\n      tag_29\n      jump\t// in\n    tag_53:\n        /* \"#utility.yul\":2062:2150   */\n      swap3\n      pop\n        /* \"#utility.yul\":2016:2160   */\n      pop\n        /* \"#utility.yul\":2199:2202   */\n      0x0100\n        /* \"#utility.yul\":2226:2304   */\n      tag_54\n        /* \"#utility.yul\":2296:2303   */\n      dup8\n        /* \"#utility.yul\":2287:2293   */\n      dup3\n        /* \"#utility.yul\":2276:2285   */\n      dup9\n        /* \"#utility.yul\":2272:2294   */\n      add\n        /* \"#utility.yul\":2226:2304   */\n      tag_31\n      jump\t// in\n    tag_54:\n        /* \"#utility.yul\":2216:2304   */\n      swap2\n      pop\n        /* \"#utility.yul\":2170:2314   */\n      pop\n        /* \"#utility.yul\":1304:2321   */\n      swap3\n      swap6\n      swap2\n      swap5\n      pop\n      swap3\n      pop\n      jump\t// out\n        /* \"#utility.yul\":2327:2417   */\n    tag_32:\n        /* \"#utility.yul\":2361:2368   */\n      0x00\n        /* \"#utility.yul\":2404:2409   */\n      dup2\n        /* \"#utility.yul\":2397:2410   */\n      iszero\n        /* \"#utility.yul\":2390:2411   */\n      iszero\n        /* \"#utility.yul\":2379:2411   */\n      swap1\n      pop\n        /* \"#utility.yul\":2327:2417   */\n      swap2\n      swap1\n      pop\n      jump\t// out\n        /* \"#utility.yul\":2423:2532   */\n    tag_33:\n        /* \"#utility.yul\":2504:2525   */\n      tag_57\n        /* \"#utility.yul\":2519:2524   */\n      dup2\n        /* \"#utility.yul\":2504:2525   */\n      tag_32\n      jump\t// in\n    tag_57:\n        /* \"#utility.yul\":2499:2502   */\n      dup3\n        /* \"#utility.yul\":2492:2526   */\n      mstore\n        /* \"#utility.yul\":2423:2532   */\n      pop\n      pop\n      jump\t// out\n        /* \"#utility.yul\":2538:2748   */\n    tag_9:\n        /* \"#utility.yul\":2625:2629   */\n      0x00\n        /* \"#utility.yul\":2663:2665   */\n      0x20\n        /* \"#utility.yul\":2652:2661   */\n      dup3\n        /* \"#utility.yul\":2648:2666   */\n      add\n        /* \"#utility.yul\":2640:2666   */\n      swap1\n      pop\n        /* \"#utility.yul\":2676:2741   */\n      tag_59\n        /* \"#utility.yul\":2738:2739   */\n      0x00\n        /* \"#utility.yul\":2727:2736   */\n      dup4\n        /* \"#utility.yul\":2723:2740   */\n      add\n        /* \"#utility.yul\":2714:2720   */\n      dup5\n        /* \"#utility.yul\":2676:2741   */\n      tag_33\n      jump\t// in\n    tag_59:\n        /* \"#utility.yul\":2538:2748   */\n      swap3\n      swap2\n      pop\n      pop\n      jump\t// out\n\n    auxdata: 0xa2646970667358221220ca52a47934f89d700cc88158615a1d03ac3c9aaae1f3633d9c0322caeb0e73b664736f6c634300081a0033\n}\n",
				"bytecode": {
					"linkReferences": {},
					"object": "6080604052348015600e575f80fd5b506105f08061001c5f395ff3fe608060405234801561000f575f80fd5b5060043610610029575f3560e01c806343753b4d1461002d575b5f80fd5b61004760048036038101906100429190610521565b61005d565b60405161005491906105a1565b60405180910390f35b5f61047d565b7f30644e72e131a029b85045b68181585d97816a916871ca8d3c208c16d87cfd478110610092575f805260205ff35b50565b5f60405183815284602082015285604082015260408160608360076107d05a03fa9150816100c5575f805260205ff35b825160408201526020830151606082015260408360808360066107d05a03fa9150816100f3575f805260205ff35b505050505050565b5f608086015f87017f0f13deecd2bb97a4a72138125f42fb6cf7a7d268c07b6be71ea235c128ec8b0d81527f141a084ea96151edd848da5554d22ffe50108204685faf2953c88cc5ecd13afc602082015261019b5f8801357f29cd386360b0c1e935715c99a3e1f741ec0eab67ecb7ca643bfc87163cab53157f27890d5f3cdd70f4205d0f7173927374bff334e68cc531b57f158ef8019bdffb84610095565b833582527f30644e72e131a029b85045b68181585d97816a916871ca8d3c208c16d87cfd4760208501357f30644e72e131a029b85045b68181585d97816a916871ca8d3c208c16d87cfd4703066020830152843560408301526020850135606083015260408501356080830152606085013560a08301527f2d4d9aa7e302d9df41749d5507949d05dbea33fbb16c643b22f599a2be6df2e260c08301527f14bedd503c37ceb061d8ec60209fe345ce89830a19230301f076caff004d192660e08301527f0967032fcbf776d1afc985f88877f182d38480a653f2decaa9794cbc3bf3060c6101008301527f0e187847ad4c798374d0d6732bf501847dd68bc0e071241e0213bc7fc13db7ab6101208301527f304cfbd1e08a704a99f5e847d93f8c3caafddec46b7a0d379da69a4d112346a76101408301527f1739c1b1a457a8c7313123d24d2f9192f896b7c63eea05a9d57f06547ad0cec86101608301525f88015161018083015260205f018801516101a08301527f198e9393920d483a7260bfb731fb5d25f1aa493335a9e71297e485b7aef312c26101c08301527f1800deef121f1e76426a00665e5c4479674322d4f75edadd46debd5cd992f6ed6101e08301527f090689d0585ff075ec9e99ad690c3395bc4b313370b38ef355acdadcd122975b6102008301527f12c85ea5db8c6deb4aab71808dcb408fe3d1e7690c43d37b4ce6cc0166fa7daa610220830152853561024083015260208601356102608301527f198e9393920d483a7260bfb731fb5d25f1aa493335a9e71297e485b7aef312c26102808301527f1800deef121f1e76426a00665e5c4479674322d4f75edadd46debd5cd992f6ed6102a08301527f090689d0585ff075ec9e99ad690c3395bc4b313370b38ef355acdadcd122975b6102c08301527f12c85ea5db8c6deb4aab71808dcb408fe3d1e7690c43d37b4ce6cc0166fa7daa6102e08301526020826103008460086107d05a03fa82518116935050505095945050505050565b60405161038081016040526104945f840135610063565b6104a16020840135610063565b6104ae818486888a6100fb565b805f5260205ff35b5f80fd5b5f80fd5b5f819050826020600202820111156104d9576104d86104ba565b5b92915050565b5f819050826040600202820111156104fa576104f96104ba565b5b92915050565b5f8190508260206001028201111561051b5761051a6104ba565b5b92915050565b5f805f80610120858703121561053a576105396104b6565b5b5f610547878288016104be565b9450506040610558878288016104df565b93505060c0610569878288016104be565b92505061010061057b87828801610500565b91505092959194509250565b5f8115159050919050565b61059b81610587565b82525050565b5f6020820190506105b45f830184610592565b9291505056fea2646970667358221220ca52a47934f89d700cc88158615a1d03ac3c9aaae1f3633d9c0322caeb0e73b664736f6c634300081a0033",
					"opcodes": "PUSH1 0x80 PUSH1 0x40 MSTORE CALLVALUE DUP1 ISZERO PUSH1 0xE JUMPI PUSH0 DUP1 REVERT JUMPDEST POP PUSH2 0x5F0 DUP1 PUSH2 0x1C PUSH0 CODECOPY PUSH0 RETURN INVALID PUSH1 0x80 PUSH1 0x40 MSTORE CALLVALUE DUP1 ISZERO PUSH2 0xF JUMPI PUSH0 DUP1 REVERT JUMPDEST POP PUSH1 0x4 CALLDATASIZE LT PUSH2 0x29 JUMPI PUSH0 CALLDATALOAD PUSH1 0xE0 SHR DUP1 PUSH4 0x43753B4D EQ PUSH2 0x2D JUMPI JUMPDEST PUSH0 DUP1 REVERT JUMPDEST PUSH2 0x47 PUSH1 0x4 DUP1 CALLDATASIZE SUB DUP2 ADD SWAP1 PUSH2 0x42 SWAP2 SWAP1 PUSH2 0x521 JUMP JUMPDEST PUSH2 0x5D JUMP JUMPDEST PUSH1 0x40 MLOAD PUSH2 0x54 SWAP2 SWAP1 PUSH2 0x5A1 JUMP JUMPDEST PUSH1 0x40 MLOAD DUP1 SWAP2 SUB SWAP1 RETURN JUMPDEST PUSH0 PUSH2 0x47D JUMP JUMPDEST PUSH32 0x30644E72E131A029B85045B68181585D97816A916871CA8D3C208C16D87CFD47 DUP2 LT PUSH2 0x92 JUMPI PUSH0 DUP1 MSTORE PUSH1 0x20 PUSH0 RETURN JUMPDEST POP JUMP JUMPDEST PUSH0 PUSH1 0x40 MLOAD DUP4 DUP2 MSTORE DUP5 PUSH1 0x20 DUP3 ADD MSTORE DUP6 PUSH1 0x40 DUP3 ADD MSTORE PUSH1 0x40 DUP2 PUSH1 0x60 DUP4 PUSH1 0x7 PUSH2 0x7D0 GAS SUB STATICCALL SWAP2 POP DUP2 PUSH2 0xC5 JUMPI PUSH0 DUP1 MSTORE PUSH1 0x20 PUSH0 RETURN JUMPDEST DUP3 MLOAD PUSH1 0x40 DUP3 ADD MSTORE PUSH1 0x20 DUP4 ADD MLOAD PUSH1 0x60 DUP3 ADD MSTORE PUSH1 0x40 DUP4 PUSH1 0x80 DUP4 PUSH1 0x6 PUSH2 0x7D0 GAS SUB STATICCALL SWAP2 POP DUP2 PUSH2 0xF3 JUMPI PUSH0 DUP1 MSTORE PUSH1 0x20 PUSH0 RETURN JUMPDEST POP POP POP POP POP POP JUMP JUMPDEST PUSH0 PUSH1 0x80 DUP7 ADD PUSH0 DUP8 ADD PUSH32 0xF13DEECD2BB97A4A72138125F42FB6CF7A7D268C07B6BE71EA235C128EC8B0D DUP2 MSTORE PUSH32 0x141A084EA96151EDD848DA5554D22FFE50108204685FAF2953C88CC5ECD13AFC PUSH1 0x20 DUP3 ADD MSTORE PUSH2 0x19B PUSH0 DUP9 ADD CALLDATALOAD PUSH32 0x29CD386360B0C1E935715C99A3E1F741EC0EAB67ECB7CA643BFC87163CAB5315 PUSH32 0x27890D5F3CDD70F4205D0F7173927374BFF334E68CC531B57F158EF8019BDFFB DUP5 PUSH2 0x95 JUMP JUMPDEST DUP4 CALLDATALOAD DUP3 MSTORE PUSH32 0x30644E72E131A029B85045B68181585D97816A916871CA8D3C208C16D87CFD47 PUSH1 0x20 DUP6 ADD CALLDATALOAD PUSH32 0x30644E72E131A029B85045B68181585D97816A916871CA8D3C208C16D87CFD47 SUB MOD PUSH1 0x20 DUP4 ADD MSTORE DUP5 CALLDATALOAD PUSH1 0x40 DUP4 ADD MSTORE PUSH1 0x20 DUP6 ADD CALLDATALOAD PUSH1 0x60 DUP4 ADD MSTORE PUSH1 0x40 DUP6 ADD CALLDATALOAD PUSH1 0x80 DUP4 ADD MSTORE PUSH1 0x60 DUP6 ADD CALLDATALOAD PUSH1 0xA0 DUP4 ADD MSTORE PUSH32 0x2D4D9AA7E302D9DF41749D5507949D05DBEA33FBB16C643B22F599A2BE6DF2E2 PUSH1 0xC0 DUP4 ADD MSTORE PUSH32 0x14BEDD503C37CEB061D8EC60209FE345CE89830A19230301F076CAFF004D1926 PUSH1 0xE0 DUP4 ADD MSTORE PUSH32 0x967032FCBF776D1AFC985F88877F182D38480A653F2DECAA9794CBC3BF3060C PUSH2 0x100 DUP4 ADD MSTORE PUSH32 0xE187847AD4C798374D0D6732BF501847DD68BC0E071241E0213BC7FC13DB7AB PUSH2 0x120 DUP4 ADD MSTORE PUSH32 0x304CFBD1E08A704A99F5E847D93F8C3CAAFDDEC46B7A0D379DA69A4D112346A7 PUSH2 0x140 DUP4 ADD MSTORE PUSH32 0x1739C1B1A457A8C7313123D24D2F9192F896B7C63EEA05A9D57F06547AD0CEC8 PUSH2 0x160 DUP4 ADD MSTORE PUSH0 DUP9 ADD MLOAD PUSH2 0x180 DUP4 ADD MSTORE PUSH1 0x20 PUSH0 ADD DUP9 ADD MLOAD PUSH2 0x1A0 DUP4 ADD MSTORE PUSH32 0x198E9393920D483A7260BFB731FB5D25F1AA493335A9E71297E485B7AEF312C2 PUSH2 0x1C0 DUP4 ADD MSTORE PUSH32 0x1800DEEF121F1E76426A00665E5C4479674322D4F75EDADD46DEBD5CD992F6ED PUSH2 0x1E0 DUP4 ADD MSTORE PUSH32 0x90689D0585FF075EC9E99AD690C3395BC4B313370B38EF355ACDADCD122975B PUSH2 0x200 DUP4 ADD MSTORE PUSH32 0x12C85EA5DB8C6DEB4AAB71808DCB408FE3D1E7690C43D37B4CE6CC0166FA7DAA PUSH2 0x220 DUP4 ADD MSTORE DUP6 CALLDATALOAD PUSH2 0x240 DUP4 ADD MSTORE PUSH1 0x20 DUP7 ADD CALLDATALOAD PUSH2 0x260 DUP4 ADD MSTORE PUSH32 0x198E9393920D483A7260BFB731FB5D25F1AA493335A9E71297E485B7AEF312C2 PUSH2 0x280 DUP4 ADD MSTORE PUSH32 0x1800DEEF121F1E76426A00665E5C4479674322D4F75EDADD46DEBD5CD992F6ED PUSH2 0x2A0 DUP4 ADD MSTORE PUSH32 0x90689D0585FF075EC9E99AD690C3395BC4B313370B38EF355ACDADCD122975B PUSH2 0x2C0 DUP4 ADD MSTORE PUSH32 0x12C85EA5DB8C6DEB4AAB71808DCB408FE3D1E7690C43D37B4CE6CC0166FA7DAA PUSH2 0x2E0 DUP4 ADD MSTORE PUSH1 0x20 DUP3 PUSH2 0x300 DUP5 PUSH1 0x8 PUSH2 0x7D0 GAS SUB STATICCALL DUP3 MLOAD DUP2 AND SWAP4 POP POP POP POP SWAP6 SWAP5 POP POP POP POP POP JUMP JUMPDEST PUSH1 0x40 MLOAD PUSH2 0x380 DUP2 ADD PUSH1 0x40 MSTORE PUSH2 0x494 PUSH0 DUP5 ADD CALLDATALOAD PUSH2 0x63 JUMP JUMPDEST PUSH2 0x4A1 PUSH1 0x20 DUP5 ADD CALLDATALOAD PUSH2 0x63 JUMP JUMPDEST PUSH2 0x4AE DUP2 DUP5 DUP7 DUP9 DUP11 PUSH2 0xFB JUMP JUMPDEST DUP1 PUSH0 MSTORE PUSH1 0x20 PUSH0 RETURN JUMPDEST PUSH0 DUP1 REVERT JUMPDEST PUSH0 DUP1 REVERT JUMPDEST PUSH0 DUP2 SWAP1 POP DUP3 PUSH1 0x20 PUSH1 0x2 MUL DUP3 ADD GT ISZERO PUSH2 0x4D9 JUMPI PUSH2 0x4D8 PUSH2 0x4BA JUMP JUMPDEST JUMPDEST SWAP3 SWAP2 POP POP JUMP JUMPDEST PUSH0 DUP2 SWAP1 POP DUP3 PUSH1 0x40 PUSH1 0x2 MUL DUP3 ADD GT ISZERO PUSH2 0x4FA JUMPI PUSH2 0x4F9 PUSH2 0x4BA JUMP JUMPDEST JUMPDEST SWAP3 SWAP2 POP POP JUMP JUMPDEST PUSH0 DUP2 SWAP1 POP DUP3 PUSH1 0x20 PUSH1 0x1 MUL DUP3 ADD GT ISZERO PUSH2 0x51B JUMPI PUSH2 0x51A PUSH2 0x4BA JUMP JUMPDEST JUMPDEST SWAP3 SWAP2 POP POP JUMP JUMPDEST PUSH0 DUP1 PUSH0 DUP1 PUSH2 0x120 DUP6 DUP8 SUB SLT ISZERO PUSH2 0x53A JUMPI PUSH2 0x539 PUSH2 0x4B6 JUMP JUMPDEST JUMPDEST PUSH0 PUSH2 0x547 DUP8 DUP3 DUP9 ADD PUSH2 0x4BE JUMP JUMPDEST SWAP5 POP POP PUSH1 0x40 PUSH2 0x558 DUP8 DUP3 DUP9 ADD PUSH2 0x4DF JUMP JUMPDEST SWAP4 POP POP PUSH1 0xC0 PUSH2 0x569 DUP8 DUP3 DUP9 ADD PUSH2 0x4BE JUMP JUMPDEST SWAP3 POP POP PUSH2 0x100 PUSH2 0x57B DUP8 DUP3 DUP9 ADD PUSH2 0x500 JUMP JUMPDEST SWAP2 POP POP SWAP3 SWAP6 SWAP2 SWAP5 POP SWAP3 POP JUMP JUMPDEST PUSH0 DUP2 ISZERO ISZERO SWAP1 POP SWAP2 SWAP1 POP JUMP JUMPDEST PUSH2 0x59B DUP2 PUSH2 0x587 JUMP JUMPDEST DUP3 MSTORE POP POP JUMP JUMPDEST PUSH0 PUSH1 0x20 DUP3 ADD SWAP1 POP PUSH2 0x5B4 PUSH0 DUP4 ADD DUP5 PUSH2 0x592 JUMP JUMPDEST SWAP3 SWAP2 POP POP JUMP INVALID LOG2 PUSH5 0x6970667358 0x22 SLT KECCAK256 0xCA MSTORE LOG4 PUSH26 0x34F89D700CC88158615A1D03AC3C9AAAE1F3633D9C0322CAEB0E PUSH20 0xB664736F6C634300081A00330000000000000000 "
				},
				"gasEstimates": {
					"creation": {
						"codeDepositCost": "304000",
						"executionCost": "341",
						"totalCost": "304341"
					},
					"external": {
						"verifyProof(uint256[2],uint256[2][2],uint256[2],uint256[1])": "infinite"
					}
				},
				"methodIdentifiers": {
					"verifyProof(uint256[2],uint256[2][2],uint256[2],uint256[1])": "43753b4d"
				}
			},
			"storageLayout": {
				"storage": [],
				"types": null
			},
			"userdoc": {
				"kind": "user",
				"methods": {},
				"version": 1
			}
		}
	}
}